:100000000C940D010C942A010C942A010C942A01E1
:100010000C942A010C942A010C942A010C942A01B4
:100020000C942A010C942A010C9442050C947C0532
:100030000C942A010C942A010C942A010C942A0194
:100040000C942A010C9475010C942A010C942A0139
:100050000C942A010C942A010C942A010C942A0174
:100060000C942A010C942A010C942A010C942A0164
:100070000C942A010C942A010C942A010C942A0154
:100080000C942A010C942A010C942A010C942A0144
:100090000C942A010C942A010C942A010C942A0134
:1000A0000C942A010C942A010C942A01E204DA042B
:1000B000D204CA04C204BA04B204AA04A2049A0470
:1000C00092048A0482047A0472046A0462045A0460
:1000D00052044A0442043A0432042A0422041A0450
:1000E00012040A040204FA03F203EA03E203DA0345
:1000F000D203CA03C203BA03B203AA03A2039A0338
:1001000092038A0382037A0372036A0362035A0327
:1001100052034A0342033A0332032A0322031A0317
:1001200012030A030203FA02F202EA02E2020001E7
:100130000000FD011200020000BA014300030000AC
:10014000B601040103090488012C020309046601B5
:10015000200303090458010C0C0331003000300067
:1001600030003000000020034A004400200042001C
:100170006500610063006F006E00200042006F00A8
:1001800061007200640000002C03420069006E00F0
:100190006700680061006D0074006F006E00200051
:1001A00055006E00690076006500720073006900FA
:1001B00074007900000004030904090243000201ED
:1001C00000C03209040000010202010005240010F1
:1001D000010524010101042402060524060001078B
:1001E00005820310004009040100020A0000000714
:1001F00005030240000007058402400000120100D0
:100200000202000010D016A5050001010203010042
:1002100001C1120180360181360011241FBECFEFCB
:10022000DAE0DEBFCDBF11E0A0E0B1E0E2E7FEE042
:1002300002C005900D92A830B107D9F711E0A8E0EF
:10024000B1E001C01D92AE30B107E1F70E94CC06CB
:100250000C9437070C9400000E94C4010E94DD0139
:100260008823E1F308958AB18E608AB9E1E8F0E06D
:10027000808189608083EFE6F0E080818260808306
:1002800080E092E09093890080938800089521E0B7
:1002900030E001C0220F8A95EAF780910901822B94
:1002A000809309019BB1982B9BB9089521E030E020
:1002B00001C0220F8A95EAF72095809109018223D7
:1002C000809309018BB182238BB9089583E090E07C
:1002D0000E94560181E090E00E94560182E090E089
:1002E0000C9456018093000108951F920F920FB64F
:1002F0000F9211245F936F937F938F939F93AF938C
:10030000BF938091080190E0019664E670E00E943E
:100310000907982F80930801809100018695981312
:1003200006C09BB1809109018095892306C0911177
:1003300005C08BB190910901892B8BB9BF91AF9109
:100340009F918F917F916F915F910F900FBE0F9052
:100350001F9018953E9AE1E9F0E0808188608083E3
:10036000A0E9B0E08C9180648C938081816080836F
:1003700082ED90E090939900809398000895809189
:10038000E80080FFFCCF089581E08093D70080EAE9
:100390008093D80082E189BD09B400FEFDCF80E9D9
:1003A0008093D8001092E00010920D0110920A0183
:1003B0008CE08093E2007894089580910D01089577
:1003C0009FB7F89480910D01882369F083E08093B2
:1003D000E9002BE68091E80085FD09C082FF03C09B
:1003E0002093E800F7CF9FBF8FEF9FEF0895809194
:1003F000F1002091E80025FD03C02BE62093E800E2
:100400009FBF90E008952FB7F89480910D0181115E
:1004100002C080E010C083E08093E9008091F20088
:10042000811109C09091E80092FFF3CF95FDF1CFC3
:100430009BE69093E8002FBF089580910D018823DB
:1004400071F08FB7F89493E09093E9002BE69091C8
:10045000E80095FF03C02093E800F9CF8FBF08950F
:1004600090910D01992371F09FB7F89424E02093A7
:10047000E90020910B01222349F02091E80025FD9D
:1004800003C09FBF8FEF089510920B012091E400ED
:10049000275E34E04091E80045FD12C09FBF909177
:1004A000E400921304C081E080930B01EBCF9091A4
:1004B0000D01992339F39FB7F8943093E900EACFFF
:1004C0008093F1008091E80085FD03C08AE380936A
:1004D000E80085E080930C019FBF80E00895909133
:1004E0000D019923D1F09FB7F89424E02093E900FF
:1004F0002091E80025FD02C09FBF0FC08093F1004E
:100500008091E80085FD03C08AE38093E80085E0E0
:1005100080930C019FBF80E008958FEF0895EF92C4
:10052000FF921F93CF93DF937C01CB0120910D01AC
:10053000222371F0AFB7F89424E02093E9002091D2
:100540000B01222349F02091E80025FD03C0AFBF35
:100550008FEF42C210920B01B4E0C0E4DAE315E081
:10056000009709F438C22091E400275E3091E8003A
:1005700035FD12C0AFBF3091E400321304C081E0FA
:1005800080930B01E5CF30910D01332309F3AFB711
:10059000F894B093E900EACF2091F2004C2F421B6F
:1005A000242F30E08217930708F4482F841B910909
:1005B00050E04134510508F0FDC14A5A5F4FFA013D
:1005C0000C941D07F70120812093F10097012F5F04
:1005D0003F4F7901F70120812093F10097012F5FB0
:1005E0003F4F7901F70120812093F10097012F5FA0
:1005F0003F4F7901F70120812093F10097012F5F90
:100600003F4F7901F70120812093F10097012F5F7F
:100610003F4F7901F70120812093F10097012F5F6F
:100620003F4F7901F70120812093F10097012F5F5F
:100630003F4F7901F70120812093F10097012F5F4F
:100640003F4F7901F70120812093F10097012F5F3F
:100650003F4F7901F70120812093F10097012F5F2F
:100660003F4F7901F70120812093F10097012F5F1F
:100670003F4F7901F70120812093F10097012F5F0F
:100680003F4F7901F70120812093F10097012F5FFF
:100690003F4F7901F70120812093F10097012F5FEF
:1006A0003F4F7901F70120812093F10097012F5FDF
:1006B0003F4F7901F70120812093F10097012F5FCF
:1006C0003F4F7901F70120812093F10097012F5FBF
:1006D0003F4F7901F70120812093F10097012F5FAF
:1006E0003F4F7901F70120812093F10097012F5F9F
:1006F0003F4F7901F70120812093F10097012F5F8F
:100700003F4F7901F70120812093F10097012F5F7E
:100710003F4F7901F70120812093F10097012F5F6E
:100720003F4F7901F70120812093F10097012F5F5E
:100730003F4F7901F70120812093F10097012F5F4E
:100740003F4F7901F70120812093F10097012F5F3E
:100750003F4F7901F70120812093F10097012F5F2E
:100760003F4F7901F70120812093F10097012F5F1E
:100770003F4F7901F70120812093F10097012F5F0E
:100780003F4F7901F70120812093F10097012F5FFE
:100790003F4F7901F70120812093F10097012F5FEE
:1007A0003F4F7901F70120812093F10097012F5FDE
:1007B0003F4F7901F70120812093F10097012F5FCE
:1007C0003F4F7901F70120812093F10097012F5FBE
:1007D0003F4F7901F70120812093F10097012F5FAE
:1007E0003F4F7901F70120812093F10097012F5F9E
:1007F0003F4F7901F70120812093F10097012F5F8E
:100800003F4F7901F70120812093F10097012F5F7D
:100810003F4F7901F70120812093F10097012F5F6D
:100820003F4F7901F70120812093F10097012F5F5D
:100830003F4F7901F70120812093F10097012F5F4D
:100840003F4F7901F70120812093F10097012F5F3D
:100850003F4F7901F70120812093F10097012F5F2D
:100860003F4F7901F70120812093F10097012F5F1D
:100870003F4F7901F70120812093F10097012F5F0D
:100880003F4F7901F70120812093F10097012F5FFD
:100890003F4F7901F70120812093F10097012F5FED
:1008A0003F4F7901F70120812093F10097012F5FDD
:1008B0003F4F7901F70120812093F10097012F5FCD
:1008C0003F4F7901F70120812093F10097012F5FBD
:1008D0003F4F7901F70120812093F10097012F5FAD
:1008E0003F4F7901F70120812093F10097012F5F9D
:1008F0003F4F7901F70120812093F10097012F5F8D
:100900003F4F7901F70120812093F10097012F5F7C
:100910003F4F7901F70120812093F10097012F5F6C
:100920003F4F7901F70120812093F10097012F5F5C
:100930003F4F7901F70120812093F10097012F5F4C
:100940003F4F7901F70120812093F10097012F5F3C
:100950003F4F7901F70120812093F10097012F5F2C
:100960003F4F7901F70120812093F10097012F5F1C
:100970003F4F7901F70120812093F10097012F5F0C
:100980003F4F7901F70120812093F10097012F5FFC
:100990003F4F7901F70120812093F10097012F5FEC
:1009A0003F4F7901F70120812093F10097012F5FDC
:1009B0003F4F7901F70120812093F10097012F5FCC
:1009C0003F4F79012091E80025FFD093E800109374
:1009D0000C01AFBFC5CD80E0DF91CF911F91FF909B
:1009E000EF9008958FB7F89490910C01992341F0FE
:1009F00094E09093E9009AE39093E80010920C0140
:100A00008FBF0895609101017091020180910301EF
:100A10009091040108958091050108958091060147
:100A2000089580910701089580910A0108959FB764
:100A3000F89420910D01222339F022E02093E9005F
:100A40002091E80025FD03C09FBF8FEF089521EAA4
:100A50002093F10020E22093F1001092F100109217
:100A6000F1001092F1001092F10021E02093F100CA
:100A70001092F1008093F1008AE38093E8009FBF19
:100A800080E008951F920F920FB60F9211248F935A
:100A90009F938091E1001092E10083FF11C01092BA
:100AA000E90091E09093EB001092EC0092E19093BA
:100AB000ED0098E09093F00010920D0110920A0161
:100AC00082FF13C080910D01882379F080910C0181
:100AD000882359F0815080930C01811106C084E075
:100AE0008093E9008AE38093E8009F918F910F90B3
:100AF0000FBE0F901F9018951F920F920FB60F9276
:100B00001124EF92FF920F931F932F933F934F93D4
:100B10005F936F937F938F939F93AF93BF93EF9365
:100B2000FF93CF93DF931F92CDB7DEB71092E9000A
:100B30008091E80083FF15C19091F1008091F10050
:100B40003091F1002091F100E32EF12CF22A009176
:100B5000F1002091F10010E0122B2091F100609142
:100B6000F10032EF3093E800863009F046C036E0FD
:100B70008EE291E0FC01459154914E155F0539F4E8
:100B8000FC013296459154914017510721F0079688
:100B9000315081F7E6C0FC01349645915491FC0137
:100BA0003696849130E0362B2F3F310519F010F046
:100BB0002FEF30E0281708F4822F3EEF9091E800E5
:100BC000292F2570D9F392FDCFC0982F813108F0DD
:100BD00090E1FA01292F222331F064916093F10012
:100BE00021503196F8CF490F511D891B3093E800F1
:100BF0008111E4CF903111F3B7C0853051F48EEFFD
:100C00008093E8000E94BF018E2D80688093E300EE
:100C1000ABC0893061F5911181C0E0920D01109255
:100C20000A0110920C018EEF8093E80041E08FE002
:100C300092E04093E9009C012F5F3F4FFC015491EB
:100C40005093EB00552361F0F90124912093EC00BF
:100C50009C012D5F3F4FFC01329684918093ED0003
:100C60004F5F453011F0C901E4CF8EE175C0883087
:100C700051F4903809F052C00E94BF0180910D01DB
:100C80008093F10047C0813279F4913A09F046C06F
:100C90000E94BF01E1E0F1E081918093F10081E0E9
:100CA000E830F807C9F736C0803299F49132B1F5CF
:100CB0008091E80082FFFCCFE1E0F1E08091F1005B
:100CC000819381E0E830F807C9F78BEF8093E80063
:100CD00021C0823241F4913209F043C0E0920A010E
:100CE0000E94BF0117C0811119C099830E94BF01E2
:100CF0009981923851F40093E9008091EB0085FBD3
:100D0000882780F91092E90001C080E08093F1000B
:100D10001092F1008EEF8093E80026C0282F2D7FDF
:100D20002130F9F49230E9F4EF28D9F40F779FEFEE
:100D3000900F9430B0F49EEF9093E8000093E90098
:100D4000833079F089E18093EB0081E090E0002E20
:100D500001C0880F0A94EAF78093EA001092EA0033
:100D600003C081E28093EB000F90DF91CF91FF9160
:100D7000EF91BF91AF919F918F917F916F915F9113
:100D80004F913F912F911F910F91FF90EF900F90F6
:100D90000FBE0F901F90189580E88093610010920D
:100DA00061000E9433010E942C010E94AA017894E4
:100DB00083E090E00E9447010E94E00197FDFCCF94
:100DC0008C36910511F144F487369105A1F08836EF
:100DD000910591F784E61AC08237910549F087376B
:100DE000910571F08F36910539F70E946601E4CFC5
:100DF0000E946601DDCF0E94660182E090E0DACFBA
:100E00000E94660181E090E0D5CF85E00E947201EA
:100E1000D3CF97FB072E16F4009407D077FD09D0A7
:100E20000E94230707FC05D03EF4909581959F4FC3
:100E30000895709561957F4F0895EE0FFF1F0590FF
:100E4000F491E02D0994AA1BBB1B51E107C0AA1F16
:100E5000BB1FA617B70710F0A61BB70B881F991F5B
:100E60005A95A9F780959095BC01CD010895F89405
:020E7000FFCFB2
:080E72006400E100000000082B
:00000001FF
